:020000040800F2
:1000000058200024E1020008015C0008B138000813
:10001000F95B0008B1080008B96D00080000000095
:10002000000000000000000000000000615E000809
:10003000B908000800000000095C0008695E0008BB
:10004000FB020008FB020008FB020008FB0200089C
:10005000FB020008FB020008FB020008FB0200088C
:10006000FB020008FB020008FB020008FB0200087C
:10007000FB020008FB020008FB020008FB0200086C
:10008000FB020008FB020008FB020008FB0200085C
:10009000FB020008FB020008FB020008FB0200084C
:1000A000FB020008FB020008FB020008FB0200083C
:1000B000FB020008FB020008FB020008FB0200082C
:1000C000FB020008FB020008FB020008FB0200081C
:1000D000FB020008FB020008FB020008FB0200080C
:1000E000FB020008FB02000800000000FB02000801
:1000F000FB020008FB020008FB020008FB020008EC
:10010000FB020008FB020008FB020008FB020008DB
:10011000FB020008FB020008FB020008FB020008CB
:10012000FB020008FB020008FB020008FB020008BB
:10013000FB020008FB020008FB020008FB020008AB
:1001400000000000000000000000000000000000AF
:10015000FB020008FB020008FB020008FB0200088B
:10016000FB020008FB020008FB020008FB0200087B
:10017000FB020008FB020008FB0200080000000070
:10018000FB020008FB020008FB020008FB0200085B
:10019000FB020008FB020008FB020008FB0200084B
:1001A000FB020008FB020008FB0200080000000040
:1001B000FB020008FB020008FB020008FB0200082B
:1001C000FB020008FB020008000000000000000025
:1001D0000000000000000000FB020008000000001A
:1001E000000000000000000000000000000000000F
:1001F0000000000000000000FB020008FB020008F5
:10020000FB020008FB02000800000000FB020008DF
:10021000FB020008FB020008FB020008FB020008CA
:10022000FB02000800000000FB02000800000000C4
:10023000FB020008FB02000800000000FB020008AF
:10024000FB020008FB020008FB020008FB0200089A
:10025000FB020008FB020008FB020008FB0200088A
:10026000FB020008FB020008FB020008FB0200087A
:10027000FB020008FB020008FB020008000000006F
:10028000FB020008FB020008FB020008FB0200085A
:1002900000000000FB020008FB0200080000000054
:1002A00000000000FB020008FB020008FB0200083F
:1002B000FB020008FB020008FB020008FB0200082A
:1002C000FB020008FB020008FB020008DFF80CD06C
:1002D00000F064FA004800475179000858200024D3
:1002E0000648804706480047FEE7FEE7FEE7FEE7D0
:1002F000FEE7FEE7FEE7FEE7FEE7FEE7395F000800
:10030000CD0200082DE9F05F0546002092469B468D
:1003100088460646814640241BE02846414647461B
:10032000224600F072F853465A46C01A914110D343
:1003300011461846224600F059F82D1A67EB0108BD
:100340004F4622460120002100F050F817EB00092B
:100350004E41201EA4F10104DFDC484631462A4606
:100360004346BDE8F09FD2B201E000F8012B491EE0
:10037000FBD270470022F6E710B513460A46044642
:100380001946FFF7F0FF204610BD10B5044604E003
:100390000B7800F8013B03B1491C521EF8D22046ED
:1003A00010BD30B505460020034600E05B1C9342BB
:1003B00005D2EC5CC85C201A01D1002CF6D130BD0E
:1003C00030B50B46014600202022012409E021FA25
:1003D00002F59D4205D303FA02F5491B04FA02F522
:1003E0002844151EA2F10102F1DC30BD202A04DBF5
:1003F000203A00FA02F1002070479140C2F1200338
:1004000020FA03F3194390407047202A04DB203A76
:1004100021FA02F00021704721FA02F3D040C2F124
:10042000200291400843194670472DE9FE4F80464F
:1004300081EA0300C00F0C46009021F0004123F038
:100440000045B8EB0200A94105D24046214690463E
:100450001C460B46024623F00040104347D0270DB0
:10046000C7F30A00C3F30A510290401A01904028D2
:100470006BDAC3F3130040F4801B0098924620B15E
:100480000023D2EB030A63EB0B0B01985946C0F132
:1004900040025046FFF7AAFF06460D465046594611
:1004A000019A00F093F910EB08006141002487EAFB
:1004B000115284EAE7731A4340D0009A62B3019A5A
:1004C000012A4FEA075215DC001B61EB02014FF0D5
:1004D000004202EA0752CDE90042001C41F58011BA
:1004E00032462B4600F093F903B0BDE8F08F40464A
:1004F0002146F9E7001B61EB0201001C41F5801366
:1005000000185B412018A2F5001747EB030140EAF1
:10051000D570B6196D4111E06D084FEA360645EA0F
:10052000C0754FEA0752001B61EB0201001C41F548
:10053000801149084FEA30000019514132462B46DC
:1005400003B0BDE8F04F00F053B90098012240001D
:100550000023D0EB020263EBE073009821464FEAE0
:10056000E074B8EB000061EB0401E9E783F00043BD
:100570005BE781F0004158E72DE9FE4F81EA030473
:1005800004F0004421F0004100944FF0000B23F0F0
:10059000004350EA01045ED052EA03045BD0C3F387
:1005A0000A54C1F30A552C44A4F2F3340194A0FB7D
:1005B0000254C1F3130141F48011C3F3130343F454
:1005C000801301FB024400FB034E840A970A44EAAD
:1005D000815447EA8357A4FB076802958D0A05FBFF
:1005E00007854FEA932C04FB0C542705029D4FEA24
:1005F000065847EA1637B5EB08056EEB070C870E71
:10060000920E47EA811742EA8312A7FB0201B6EB7A
:100610000B0164EB00042B0D43EA0C335E1844EB32
:100620001C50DA465146E7FB0201C5F313044FEABA
:100630000B3343EA14534FEA0432019C43EA0603A6
:10064000A4F10C040294009CCDE900B400F0DFF8A2
:1006500003B0BDE8F08F00200146F9E72DE9F04D29
:1006600081EA030404F0004B21F0004514464FF0EA
:10067000000A23F0004150EA050220D054EA0102AA
:100680001DD0C5F30A570246C5F31303C1F3130087
:10069000C1F30A5640F4801543F48013A7EB060813
:1006A000101BD64608F2FD3873EB050002D308F1A3
:1006B000010801E092185B41B8F1000F03DA002055
:1006C0000146BDE8F08D00204FF4801106468446B7
:1006D0000EE0171B73EB050705D3121B63EB050335
:1006E00006434CEA010C49084FEA300092185B417E
:1006F00050EA0107EDD152EA030012D082EA040069
:1007000083EA0501084305D0101BAB4106D2012244
:10071000002306E000224FF0004302E06FF00102E8
:1007200053101AEB06004CEB085110EB0A0041EB9A
:100730000B01BDE8F04D00F05BB8C1F30A52C1F304
:10074000130140F2FF3341F480119A4202DA002093
:100750000146704740F233439A42A2F2334202DC30
:100760005242FFF752BEFFF741BE000030B5041EF3
:1007700071F1000404DB4FF00044404264EB0101DE
:10078000141E73F1000405DB1C464FF00043524277
:1007900063EB0403994208BF904230BD1CB5094881
:1007A0000090094801900546009C06E0E06840F092
:1007B000010394E8070098471034AC42F6D3FFF7E2
:1007C00089FD0000E0F2010800F30108202A06DBA1
:1007D000CB17203A41FA02F043EAE07306E041FA0F
:1007E00002F3D040C2F120029140084319467047FD
:1007F00010B5141E73F1000408DA401C41F1000129
:1008000092185B411A4301D120F0010010BD2DE97F
:10081000F04D92469B4611B1B1FA81F202E0B0FA76
:1008200080F220329046FFF7E1FD04460F4640EA91
:100830000A0041EA0B0153465A46084313D01146B9
:1008400053EA010019D0C8F140025046FFF7DDFD20
:1008500005460E46504659464246FFF7C7FD084337
:1008600005D0012004E020463946BDE8F08D002087
:10087000054346EAE0762C4337430A986305E40AC9
:10088000A0EB08000022FD0A44EA47540A3002D5D2
:1008900000200146E9E7010510196941DDE9084535
:1008A00000196941BDE8F04DA2E70000000000001A
:1008B000FEE700000000000070470000000000009C
:1008C00041F6B421C2F20041086070470000000008
:1008D00080B54EF2180141F6B422CEF20001C2F208
:1008E0000042002351F804CC126802FB00FE0868A5
:1008F00009E000BF03448242A3EB0203104628BF75
:10090000634473450CD20A688242F3D10A6882427A
:1009100004BF0A688242EDD10A688242F3D0E9E757
:1009200080BD000000000000EFF3108072B600BF31
:10093000FEE7000000000000B3F5804F03461BD126
:10094000B0B5002053F822C0CCF6F0708D680CEAE8
:10095000000C8C69D1E9000E40EA0C00C96840EA3D
:100960000E1040EA0520204340EA0141BDE8B040B6
:10097000002043F8221070476FF07041002043F8C8
:100980002210704700000000B0B50A6850F822300D
:1009900023F0010340F82230D1F808E0CB68D1E918
:1009A00000C2BEF1080F08BF42F04002D1E9044581
:1009B0001A438B692243CC692A430D6A1A434B6A56
:1009C00022438C6A2A43CD6A1A430B6B22434C6B39
:1009D0002A438D6B1A4350F82C30224340F2804456
:1009E000CFF6C0742A4323401A4342EA0E0240F86D
:1009F0002C200A6BB2F5801F05D10A684AB1026843
:100A000042F4801202600A681AB1496B026811430D
:100A100001600020B0BD0000F0B500EB820340F2A1
:100A2000000CCFF6F07C5A688E6802F0404E0D69DB
:100A3000D1E9002742EA0E02CC6842EA07124F6968
:100A400042EA06228E690CEB0555FE3742EA044263
:100A50002A43324342EA07625A600268D20209D549
:100A60004268096943681A430CEB015122F4700291
:100A7000114341600020F0BD2DE9F04FABB041F6CD
:100A8000FE74C6F2004400F0BBFF0021ADF8641014
:100A9000BDF8641021804FF49671BFF34F8F219100
:100AA00021990029A1F10101219117D000BF2199BD
:100AB0000029A1F10101219110D000BF2199002945
:100AC000A1F10101219109D000BF21990029A1F1D3
:100AD0000101219102D000BFE2E700BFBFF34F8FB9
:100AE0007821219121990029A1F10101219117D0AB
:100AF00000BF21990029A1F10101219110D000BF6F
:100B000021990029A1F10101219109D000BF21996A
:100B10000029A1F10101219102D000BFE2E700BF4D
:100B20006188ADF88410BFF34F8FBDF88410169123
:100B30000121ADF86410BDF8641021804FF4967166
:100B4000BFF34F8F219100BF21990029A1F101012D
:100B5000219117D000BF21990029A1F10101219114
:100B600010D000BF21990029A1F10101219109D0E4
:100B700000BF21990029A1F10101219102D000BFFC
:100B8000E2E700BFBFF34F8F78212191219900291F
:100B9000A1F10101219117D000BF21990029A1F1F4
:100BA0000101219110D000BF21990029A1F101017B
:100BB000219109D000BF21990029A1F101012191C2
:100BC00002D000BFE2E700BF6188ADF88410BFF338
:100BD0004F8FBDF8841015910221ADF86410BDF857
:100BE000641021804FF49671BFF34F8F219100BFA5
:100BF00021990029A1F10101219117D000BF21996C
:100C00000029A1F10101219110D000BF21990029F3
:100C1000A1F10101219109D000BF21990029A1F181
:100C20000101219102D000BFE2E700BFBFF34F8F67
:100C30007821219121990029A1F10101219117D059
:100C400000BF21990029A1F10101219110D000BF1D
:100C500021990029A1F10101219109D000BF219919
:100C60000029A1F10101219102D000BFE2E700BFFC
:100C70006188ADF884100421BFF34F8FBDF8843034
:100C8000ADF86410BDF8641021804FF49671BFF385
:100C90004F8F219121990029A1F10101219117D0B4
:100CA00000BF21990029A1F10101219110D000BFBD
:100CB00021990029A1F10101219109D000BF2199B9
:100CC0000029A1F10101219102D000BFE2E700BF9C
:100CD000BFF34F8F7821219121990029A1F10101C2
:100CE000219117D000BF21990029A1F10101219183
:100CF00010D000BF21990029A1F10101219109D053
:100D000000BF21990029A1F10101219102D000BF6A
:100D1000E2E700BF6188ADF884100521BFF34F8F73
:100D2000BDF88470ADF86410BDF8641021804FF4F4
:100D30009671BFF34F8F219121990029A1F10101F3
:100D4000219117D000BF21990029A1F10101219122
:100D500010D000BF21990029A1F10101219109D0F2
:100D600000BF21990029A1F10101219102D000BF0A
:100D7000E2E700BFBFF34F8F78212191219900292D
:100D8000A1F10101219117D000BF21990029A1F102
:100D90000101219110D000BF21990029A1F1010189
:100DA000219109D000BF21990029A1F101012191D0
:100DB00002D000BFE2E700BF6188ADF88410BFF346
:100DC0004F8FBDF8841014910321ADF86410BDF865
:100DD000641021804FF49671BFF34F8F219100BFB3
:100DE000219A002AA2F10102219217D000BF219A74
:100DF000002AA2F10102219210D000BF219A002AFC
:100E0000A2F10102219209D000BF219A002AA2F189
:100E10000102219202D000BFE2E700BF45F2AA52D0
:100E2000ADF86420BDF864206280BFF34F8F21913C
:100E300021990029A1F10101219117D000BF219929
:100E40000029A1F10101219110D000BF21990029B1
:100E5000A1F10101219109D000BF21990029A1F13F
:100E60000101219102D000BFE2E700BF0321ADF8EC
:100E70006410BDF8641021804FF49671BFF34F8F5A
:100E8000219100BF21990029A1F10101219117D0E1
:100E900000BF21990029A1F10101219110D000BFCB
:100EA00021990029A1F10101219109D000BF2199C7
:100EB0000029A1F10101219102D000BFE2E700BFAA
:100EC000BFF34F8F7821219121990029A1F10101D0
:100ED000219117D000BF21990029A1F10101219191
:100EE00010D000BF21990029A1F10101219109D061
:100EF00000BF21990029A1F10101219102D000BF79
:100F0000E2E700BF618840F26806ADF88410C2F2E3
:100F10000046BFF34F8FBDF8841013917178CDE96F
:100F20000E7399B1F289318A00250024934238BFAB
:100F300001248F4238BF0125934201D0F3817061B3
:100F40008F42CDE917540DD1B1690EE0F381012133
:100F500037820022C6E90500717000211891014610
:100F6000179202E001463782B061726940F6C417F9
:100F7000821A401A40F2C001BA42C2F200414FF058
:100F800000084FF000024FF0000538BF4FF0010895
:100F9000B8424FF0180938BF01220F88149EB1F8EB
:100FA00002A0082E38BF0125002F079708BF4FF475
:100FB000F077BAF1000FCDF818A008BF4FF4487AC7
:100FC00040244FF04E0EBA454FF04A0088BF4FF014
:100FD00014094FF0A60BB7F5FA7F38BF4FF0100990
:100FE000BA4544F6251184BF48244FF05A0EBA453D
:100FF000C2F2924188BF6A20BA4588BF4FF0DA0B2F
:1010000009EB0B03BAEB0303A3FB011C189928EAB5
:1010100001011291A3EB0C01179B22EA030806F0D1
:101020000602A2F106020CEB5101B2FA82F24FF075
:1010300026034FEA52124FF0300C05EA020688BF31
:101040008B08BA454AF25A5188BF4FF0480C169A9D
:10105000159D514041F234226A40634542EA010243
:1010600045F2AA5138BF9C46262B139B81EA030107
:101070004FF0180338BF4FF0260CB7F5D77F41EA81
:10108000020138BF102389B24FF02002B1FA81F17A
:101090008DF8813040F268034FF01005C2F2004332
:1010A0008DF882504FEA51111B7838BF1822012B5E
:1010B000129B01EA0301CDF8308001EA0801A7EB99
:1010C00049081FFA88F50B94ADF86A4045F62944A3
:1010D0000D9606EA0106C5EBC501C0F28F244FEA62
:1010E00081011190ADF86E00A1FB04104FF03401A6
:1010F000CDF828C0ADF876C0944605FB01F14FF05D
:101100004E0205FB02F2CDF85CE0A1FB0413ADF842
:101110006CE0A2FB0412DE46ADF872B009F10C0BD4
:10112000089048444B44ADF86470ADF866A009EBF4
:101130000201ADF86890ADF870901897ADF8748022
:10114000ADF878B0ADF87A00ADF87C300991ADF823
:101150007E108DF880C0109620D140F26801189F53
:10116000C2F200414989B94218D140F26801C2F285
:1011700000418989514511D140F26800C2F2004016
:101180008078012840F07A8140F26800C2F2004085
:10119000C078B04200F0418270E100BFCDE90303A6
:1011A0000B980592A0EB0C01079A89B24FEA510106
:1011B00012B3069E74460EB318980F46411EAAF14C
:1011C000010391424FF0000028BF511EB34228BFD7
:1011D000731E8AB200219BB24FF2BE76009666461D
:1011E00002F096FC40F2C001B446C2F200410A8807
:1011F0004E88394602E000BF7446069E40F214074E
:10120000002AC2F200474FEA4900079018BF002E9B
:101210001BD018980F46411E0B98431E914228BFC1
:10122000511EB3424FF0000028BF731E8AB2002146
:101230009BB240F2CF160096664602F069FC394632
:1012400040F21407C2F20047B4463E6840F2CF10A5
:1012500038600FF2EC4001904FF6FF700290484664
:101260002A466346CDF800C00B9504F019FB189888
:10127000079988423E6025D040F2C000C2F200408B
:10128000008881451ED240F2C001C2F200414E8862
:101290001799B14216D20B9909EB01021799119BCC
:1012A000013A0B448242A3F1010328BF421EB3421C
:1012B0004FF6FF7028BF731E92B200909BB2484653
:1012C00002F026FCA9F101001799119A404485B259
:1012D0000A44013A484693B22A464CF21866CDF8C1
:1012E0001880009602F070FB0A9E07991FFA86F894
:1012F0001898884218BF5FEA064040F0FB81C6EBB1
:10130000C6002A462044013881B25145214628BFF3
:10131000AAF1010083B24CF218600090484602F036
:1013200053FB4FF6E0700899C0F2010010394044B9
:101330003E4610303A6808920FF21C4204EB50000F
:10134000019285B210238AB25846294645F2584781
:10135000376010240094CDF828A04FF6FF7ACDF81E
:1013600008A004F09DFADDE9033BABEB03000FF2AC
:10137000F0310438019182B2294698B210233760C7
:101380000094CDF808A004F08BFADDF824800FF269
:10139000D831A8EB0B0001910438102382B2294602
:1013A0001FFA8BF037600094CDF808A004F078FAAB
:1013B000DDE9050BABEB0000EDA10838019182B22D
:1013C00010231FFA88F0294637600094CDF808A052
:1013D00004F066FA19AD08983060E7A2E8A300218E
:1013E0002846002405F024FBE7A2E9A301212846B2
:1013F000012605F01DFBE8A2E9A30221284605F01D
:1014000017FB4FF2D038E8A2C0F6000803212846A7
:10141000434605F00DFBE6A2042128464346D84684
:1014200005F006FBE4A2E6A30521284605F000FB33
:1014300040F2680141F6E830C2F20041C2F20040D9
:101440000B9D4C800480847044820475848480F8F1
:101450002640C48680F83840A0F8484080F84A40CA
:10146000A0F85A4080F85C4045F629441898488115
:101470000A9888810E70109EC0F28F2426204FF6A5
:1014800000076843CFF6FF77002E09F1180BA0FB89
:101490000404A5F1180018BF4FF4FC67B5F5CB7F25
:1014A00038BF9A24A04238BF0446A8F1020011991F
:1014B00082B204EB0B0308EB0900A1F1140AA0EBC4
:1014C0000308189322B340F2C000C2F20040038820
:1014D00049F0010098421BD240F2C001C2F2004123
:1014E0004E88179941F00101B14211D2119D024479
:1014F0000D44013A033D9A4228BF5A1EB54228BF07
:10150000751E92B24FF6FF76ABB2009602F000FB6A
:10151000A1B2179800F10A06A8F10A0819B340F21F
:10152000C000C2F20040028809F10A0090421AD2BB
:1015300040F2C003C2F200435B889E4213D249448A
:101540000AEB06050931013D1FFA87FC914228BFCD
:10155000511E9D4228BF5D1E8AB23146ABB2CDF806
:1015600000C002F0D5FA4FF6E07097A1C0F201007A
:1015700098A35044DDF84090B9F1000FA4F1140293
:1015800006EB500040F2140618BF0B46B9B2C2F287
:10159000004692B2D6F800A031602021CDE90013B8
:1015A00081B220234FF6FF700290584604F078F97C
:1015B0001FFA88F5C6F800A0512D26D388A0019007
:1015C0001898179F84B207F10E011823002002908B
:1015D00020462A464FF6FF78C6F800804FF0180BD9
:1015E000CDF800B004F05CF907F12E0181A0CDE93F
:1015F00000B0182348F23040029020462A46C6F830
:10160000008004F04DF9C6F800A040F26801012006
:10161000C2F20041887081F8039045F2AA50139FEE
:10162000381A41F23421B0FA80F0159C4FEA501874
:10163000601AB0FA80F04AF25A51169A4FEA501ADC
:10164000501A4FF2D43BB0FA80F0C0F6000B21AD37
:1016500046092846594606F08FFE0DF1640900211F
:1016600048462A46334605F073FA2846594622462C
:1016700006F082FE012148462A46534605F068FAE4
:10168000284659463A4606F077FE022148462A4641
:10169000434605F05DFA4FF2D9342846C0F60004FF
:1016A0000F9A214606F068FE032148462A46129BFF
:1016B00005F04EFA284621460E9A06F05DFE0421FA
:1016C00048462A460C9B05F043FA14984CA100F0BA
:1016D0000102C0F34003C0F380000090284606F0EA
:1016E0004BFE052148462A460D9B05F031FA2BB0EA
:1016F000BDE8F08F40F2C000C2F200400088814592
:10170000BFF4FDAD40F2C001C2F2004149888C42F5
:10171000BFF4F5AD0B9A04EB08034A44013B013AD0
:10172000824228BF421E8B4245F2584028BF4B1EC2
:1017300092B200909BB24846214602F0E9F9DEE5FC
:10174000464D432046504741204C494E4B204D4F7B
:101750004E49544F520000004954454D00000000CE
:101760004558504543540000524541440000000094
:1017700053544154450000005349474E00000000B7
:101780004135354100000000434F4E5354000000E6
:1017900031323334000000004C4F4F500000000045
:1017A000353541410000000048423530000000005E
:1017B00048423133300000005354415400000000CF
:1017C00053312050310000004C494E4B20504153C2
:1017D000530000004C494E4B204641494C0000004C
:1017E00053544D333220464D43203C2D3E2046502D
:1017F000474100004650474120737461747573007F
:1018000052257520532575205025750000000000D5
:10181000B0B5044600F0F4F840F204010546C2F207
:101820000041621C097818BF0C4400BF00F0E8F8C2
:10183000401BA042FAD3B0BD2DE9F04F83B00F6832
:10184000002F00F0C98000F1264642F2004506F163
:10185000FF76C5F602050A22A8424FEAB62540F2F5
:10186000040C08BF092200F120030093082DC5F6DF
:10187000000C38BF4FEAB622002400264FF00008C3
:1018800001920AE008F101080F6837FA08F206F140
:10189000020604F1040400F09F80012202FA08FE0F
:1018A00017EA0E09EED0D1F804B003220BF00307BB
:1018B000B2407D1E6FEA020A012D11D88268CD6800
:1018C00002EA0A02B5402A438260CBF3001542685F
:1018D00022EA0E0205FA08F52A43426004E000BF3E
:1018E000032F01D103271FE0C2688D6802EA0A02B4
:1018F000B540022F42EA0502C26015D16FF0030223
:1019000004F01C0502EA580B009A0F2352F80BE072
:10191000AB400F692EEA0303AF403B4342F80B3064
:10192000D1F804B00BF00307026807FA06F302EAE5
:101930000A021BF4403F42EA03020260A2D044F2D2
:10194000F44340F2084EC5F60203C5F6000E0F251B
:101950001A6842F002021A601A6802F00202029249
:1019600028F00302029B04F00C0352F80E709D4015
:10197000AF43019D05FA03F33B4342F80E304FF0AD
:10198000B04EDEF800204B6842EA0907DD0258BF7E
:1019900022EA09079D02CEF80070DCF8002042EA36
:1019A000090758BF22EA09079D03CCF80070DCF84C
:1019B000802042EA090758BF22EA0907DB03CCF876
:1019C0008070DCF87C2042EA090758BF22EA090748
:1019D000CCF87C7056E700BF03B0BDE8F08F000084
:1019E0000069084018BF0120704700000000000097
:1019F000002A08BF09048161704700000000000050
:101A000041F65440C2F200400068704700000000F8
:101A100040F2040041F65441C2F20040C2F20041DB
:101A200000780A6810440860704700000000000059
:101A300080B5032000F0E8F801F04EF944F21841B7
:101A400048F69643C5F60201C0F600030A68C2F3E1
:101A500003229A5C096801F00F0102F01F02595C31
:101A6000D04040F21002C2F2004201F01F0120FA01
:101A700001F1116040F20C01C2F2004108600F2038
:101A800000F00AF800281CBF012080BD00F07CF89F
:101A9000002080BD00000000B0B540F20405C2F295
:101AA00000452978F1B1044640F20C00C2F2004032
:101AB0004FF47A72B2FBF1F10068B0FBF1F001F083
:101AC000DBFC0F2C01464FF001000AD8002918BF9B
:101AD000B0BD4FF0FF300022214600F065F8002035
:101AE0006C60B0BD0120B0BD10B54EF6A05E43786D
:101AF000CEF2000E90F800C04EF8083CDEF8003040
:101B000023F00103CEF8003043684EF8043C037B19
:101B1000C27A817A447B120642EA0372837B42EAEC
:101B2000C141C27B41EA8441447A41EA4341007A9F
:101B300041EA024141EA042141EA400040EA0C0046
:101B4000CEF8000010BD00004EF62450CEF200008A
:101B5000BFF35F8F016821F48031016000210167CC
:101B600070470000000000004EF6245140F00100D4
:101B7000CEF200010867086840F480300860BFF3C7
:101B80004F8FBFF36F8F704781B044F2F440C5F6BA
:101B90000200016841F002010160006800F00200EB
:101BA0000090009801B0704770B54EF60C5C4FF095
:101BB000FF36CEF2000C00F1604505F56445DCF817
:101BC0000030C3F3022E8EF00703042B28BF04233A
:101BD000BEF1030406FA03F321EA030100F00F0348
:101BE00038BF0024043B0028634406FA04F048BFD1
:101BF00003F10C05A14022EA00000843000128700F
:101C000070BD0000000000004EF60C514FF6FF03BF
:101C1000CEF200010A681A4060F30A2242F08060A6
:101C200040F0FD7008607047B0B544F60C05C5F68D
:101C3000020529684907296806D401F00701081A36
:101C400018BF0120B0BD00BF21F007010843286084
:101C5000FFF7D6FE044600BF55F8080C800407D4F1
:101C6000FFF7CEFE001BB0F57A7FF5D90120B0BD9D
:101C70000020B0BD0000000080B500F0A5FF44F2D8
:101C8000204148F69642C5F60201C0F600020968F6
:101C9000C1F30211515C01F01F01C84080BD00007A
:101CA00080B544F2384EC5F6020E5EF8103C5EF880
:101CB000101C5EF80C2CC1F3053CDEF80410BCF1DE
:101CC000000F19D0C9089FED3C1AD20601EAE27153
:101CD00003F003026FF35F3100EE101AB8EE400A12
:101CE000DFE802F0022210225EF8381C89060DD4CB
:101CF0009FED331A18E000BF00218160C0E9001198
:101D000080BD00BF9FED2D1A0EE000BF5EF8381CAD
:101D100049F20002C0F2D032C1F3C10122FA01F14E
:101D200001EE101AB8EE411ADEF800109FED253AC8
:101D30006FF35F2102EE101ADEF80010C1F34621A6
:101D4000B8EE422A013100EE032A00EE10CAB7EEC7
:101D5000003AB8EE400A81EE000A32EE031A20EE95
:101D6000010A01EE101AB8EE411A80EE011ABCEE1B
:101D7000C11A80ED001ADEF80010C1F306410131EE
:101D800001EE101AB8EE411A80EE011ABCEEC11A2B
:101D900080ED011ADEF80010C1F30661013101EE99
:101DA000101AB8EE411A80EE010ABCEEC00A10EE1D
:101DB000101A816080BD00BF0024744A20BCBE4B55
:101DC0000024744C0000003980B544F2404EC5F642
:101DD000020E5EF8183C5EF8181C5EF8142CC1F375
:101DE000055CDEF80410BCF1000F19D0C9089FEDA6
:101DF0003C1AD20501EAE27103F003026FF35F318E
:101E000000EE101AB8EE400ADFE802F002221022BB
:101E10005EF8401C89060DD49FED331A18E000BF10
:101E200000218160C0E9001180BD00BF9FED2D1A27
:101E30000EE000BF5EF8401C49F20002C0F2D03252
:101E4000C1F3C10122FA01F101EE101AB8EE411AF4
:101E5000DEF800109FED253A6FF35F2102EE101AB5
:101E6000DEF80010C1F34621B8EE422A013100EE3F
:101E7000032A00EE10CAB7EE003AB8EE400A81EE2F
:101E8000000A32EE031A20EE010A01EE101AB8EE33
:101E9000411A80EE011ABCEEC11A80ED001ADEF87C
:101EA0000010C1F30641013101EE101AB8EE411ADB
:101EB00080EE011ABCEEC11A80ED011ADEF80010A6
:101EC000C1F30661013101EE101AB8EE411A80EE3D
:101ED000010ABCEEC00A10EE101A816080BD00BF7E
:101EE0000024744A20BCBE4B0024744C000000390E
:101EF0002DE9F0470446C07844F22C480007C5F6A7
:101F0000020828D5606E4FEA305103292AD8DFE84D
:101F100001F0030B131B00BFD8F8001041F400318F
:101F2000C8F8001010E000BF04F10800022103F01F
:101F30006FFE064680B906E004F12800022103F096
:101F4000FBFE064640B9606ED8F8241021F440111B
:101F50000843C8F8240000266078C00706D135463B
:101F60002FE000BF01266078C007F8D0A06D0428DC
:101F70003ED83546DFE800F004140E0B0B0000BF1E
:101F8000D8F80000354640F40030C8F800002F466D
:101F9000C5B90DE004F12800002103F0CDFE04E0F6
:101FA00004F10800002103F033FE05462F464DB929
:101FB000D8F82400A16D20F0070000250843C8F8D8
:101FC00024003746607840073AD5D4F8A4004FEA99
:101FD0007050052818D8DFE800F0031D11232323D3
:101FE000D8F8000040F40030C8F8000018E000BF46
:101FF0000125012760784007E7D421E004F128009B
:10200000002103F099FE0AE001250126607800070F
:102010001AD44FE004F10800002103F0F9FD054651
:102020002E461DB1607800070ED443E0D8F82C008E
:10203000D4F8A41020F4600000250843C8F82C0050
:102040003E466078000735D5D4F8A8004FEA3060E6
:10205000052813D8DFE800F004180C1E1E1E00BF70
:10206000D8F8000040F40030C8F8000012E000BFCB
:1020700004F12800002103F05FFE0AE0012501279A
:10208000E07880071AD434E004F10800002103F05E
:10209000BFFD05462F461DB1E07880070ED428E02D
:1020A000D8F82C00D4F8A81020F0E06000250843F0
:1020B000C8F82C003746E07880071AD5E06C4FEA64
:1020C0003010032838D8DFE800F009032D0900BFDD
:1020D000D8F8000040F40030C8F800002E464DB992
:1020E000D8F82000E16C20F0300000250843C8F843
:1020F00020003E466078C00639D5E06D4FEA3030AA
:10210000042847D8DFE800F004221C0A0A0000BFB8
:10211000D8F8000040F40030C8F800002F463DBB5E
:102120001CE000BF04F10800022103F071FD054628
:10213000002D2E46DED1D3E701250126DAE700BFC8
:1021400004F12800002103F0F7FD04E004F1080089
:10215000002103F05DFD05462F464DB9D8F8240057
:10216000E16D20F4E04000250843C8F8240037461C
:102170006078800635D5206E4FEA3040052815D8A6
:10218000DFE800F0041A0E04040400BF2E46DDB997
:102190001EE000BF0125012760788006EBD420E017
:1021A00004F12800012103F0C7FD0AE00125012602
:1021B0006078400619D449E004F10800012103F0D9
:1021C00027FD05462E461DB1607840060DD43DE042
:1021D000D8F82400216E20F4E02000250843C8F838
:1021E00024003E466078400630D5D4F8AC004FEA73
:1021F000307005280ED8DFE800F00313070303034F
:102200002F46ADB918E000BF04F12800012103F00A
:1022100093FD0AE001250127607800061AD43CE00E
:1022200004F10800012103F0F3FC05462F461DB11F
:10223000607800060ED430E0D8F82C00D4F8AC104A
:1022400020F0E04000250843C8F82C0037466078AD
:10225000000622D5E06E58B1B0F1005F0CD0B0F1AD
:10226000805F37D1D8F8000040F40030C8F8000093
:102270002E469DB908E000BF04F10800012103F0DB
:10228000C7FC05462E464DB9D8F82400E16E20F073
:10229000405000250843C8F824003E46E078C007B7
:1022A0001DD0A06C032855D8DFE800F008024A08CA
:1022B000D8F8000040F40030C8F80000A9467DB905
:1022C000D8F82000A16C20F0030000250843C8F8CE
:1022D000200004E001250126E078C007E1D1B146E5
:1022E000A078400602D44F4618E000BFD8F8D403C7
:1022F00040F48070C8F8D403FFF782FB064600BFA5
:10230000D8F8D403C00507D4FFF77AFB801B6428F4
:10231000F6D90325032701E02F46FDB12078C00739
:1023200000F06F80A06F4FEAF00005284ED8DFE87C
:1023300000F0035347030303002D2E4654D157E00A
:1023400004F10800022103F063FC0546002DA946B4
:10235000C6D1B5E701254FF00109C1E7D8F844100F
:10236000D4F8B000414011F4407F11D0D8F84410A7
:10237000D8F8442042F48032C8F84420D8F84420E9
:1023800021F4407122F48032C8F84420C8F8441087
:10239000B0F5807F40F0D082FFF732FB064641F275
:1023A000883A0325032700BFD8F84400800700F1CE
:1023B000C182FFF725FB801B5045F5D9AEE700BF72
:1023C00004F12800012103F0B7FC0AE001250126F1
:1023D0002078800719D446E004F10800012103F0B9
:1023E00017FC05462E461DB1207880070DD43AE033
:1023F000D8F82800A16F20F0380000250843C8F85D
:1024000028003E46207880072DD5606F05280FD81C
:10241000DFE800F004140804040400BF2F46ADB93F
:1024200018E000BF04F12800012103F085FC0AE058
:10243000012501272078400719D447E004F108005E
:10244000012103F0E5FB05462F461DB1207840072A
:102450000DD43BE0D8F82800616F20F0070000257C
:102460000843C8F828003746207840072ED5D4F80E
:10247000900005280ED8DFE800F0031307030303DC
:102480002E46ADB918E000BF04F12800012103F089
:1024900053FC0AE001250126207880061AD44BE07F
:1024A00004F10800012103F0B3FB05462E461DB1DF
:1024B000207880060ED43FE0D8F82C00D4F8901095
:1024C00020F0070000250843C8F82C003E4620787D
:1024D000800631D5D4F88C004FEA307005280FD82B
:1024E000DFE800F004140804040400BF2F46ADB96F
:1024F00018E000BF04F12800022103F01DFC0AE0EF
:1025000001250127207840061AD44BE004F1080089
:10251000002103F07DFB05462F461DB120784006C3
:102520000ED43FE0D8F82800D4F88C1020F0E0401A
:1025300000250843C8F8280037462078400631D5E2
:10254000D4F898004FEAB02005280FD8DFE800F053
:1025500004140804040400BF2E46ADB918E000BFFF
:1025600004F12800022103F0E7FB0AE0012501261F
:10257000207800061AD44EE004F10800002103F090
:1025800047FB05462E461DB1207800060ED442E0DA
:10259000D8F82C00D4F8981020F4E0500025084317
:1025A000C8F82C003E462078000634D5D4F89C00AC
:1025B0004FEA7030052815D8DFE800F0041A0E0441
:1025C000040400BF2F46E5B12068010727D4C106E7
:1025D0003ED4000355D477E004F12800022103F033
:1025E000ABFB0AE00125012720680107EFD516E0C3
:1025F00004F10800002103F00BFB0546002D2F46D7
:10260000E2D1D8F82C00D4F89C1020F460400025CA
:102610000843C8F82C00374620680107D7D5D4F8FE
:102620008000B0F5805F09D104F12800022103F099
:1026300083FB002818BF0127D4F88000D8F82810A1
:1026400021F440510843C8F828002068C106C0D5CD
:10265000D4F89400B0F5807F09D104F1280002215C
:1026600003F06AFB002818BF0127D4F89400D8F8BB
:102670002C1021F440710843C8F82C002068000396
:1026800022D5D4F8A000B0F5003F11D0B0F5803FBE
:1026900008D0002844D104F10800002103F0B8FA62
:1026A00005E000BF04F12800022103F045FB0546C8
:1026B0002E4655B9D8F82C00D4F8A01020F440309C
:1026C00000250843C8F82C003E46A07840072CD5CA
:1026D000D4F88400B0F5401F0BD0B0F5001F0BD02C
:1026E000B0F5801F2AD1D8F8000040F40030C8F8B7
:1026F00000002F46D5B907E004F12800012103F0BE
:102700001BFB05462F468DB9D8F82800D4F8841055
:1027100020F4401000250843C8F8280005E000BF59
:1027200001250126A0784007D2D43746A078C007FB
:1027300009D13E462168880015D532E001250127E0
:10274000A078C007F5D0206DB0F5803F10D018BB41
:10275000D8F8000040F40030C8F800002E4685B1DB
:10276000216888001DD460688A0326D465E000BF14
:1027700004F10800022103F04BFA0546002D2E4615
:10278000EED1D8F82000216D20F4803000250843D8
:10279000C8F82000CDE700BF012501262168880088
:1027A000E1D504F12800022103F0C6FA002818BF81
:1027B0000126D4E900108A033FD5E26F6FF00103D0
:1027C00003EB3223022B0BD34FEA322343B1012B0D
:1027D00040F0AA80D8F8003043F40033C8F8003045
:1027E00025B3CA022CD48A0234D44A003CD4CA0F7E
:1027F00049D1090251D4C1075AD1810763D4410795
:102800006CD4010776D4C10600F18080800607D51C
:1028100004F12800022103F08FFA002818BF0125D7
:10282000002D18BF01252846BDE8F087D8F82830CC
:1028300023F440731A43C8F828203546CA02D2D57B
:10284000D8F82420236F22F000421A43C8F824202D
:102850008A02CAD5D8F82420A36E22F080721A43C7
:10286000C8F824204A00C2D558F81C2C22F4004293
:1028700048F81C2CD4F8B42058F81C3C1A4348F8EB
:102880001C2CCA0FB5D0D8F82020636D22F040521E
:102890001A43C8F820200902ADD5D8F82810D4F87A
:1028A000882021F440011143C8F82810C107A4D0A2
:1028B00004F10800002103F0ABF9002818BF054619
:1028C000606881079BD504F10800012103F0A0F99D
:1028D000002818BF05466068410792D504F108003A
:1028E000022103F095F9002818BF0546606801072A
:1028F0007FF589AF04F12800002103F01DFA0028BC
:1029000018BF05466068C1067FF580AF04F1280056
:10291000012103F011FA002818BF054660688006FF
:102920003FF576AF7CE700BF0125CA027FF55BAFBC
:1029300086E700BFD4F8B0004FF6CF7358F81C2CD0
:10294000C0F2FF0300F4407122F47C5203EA10133A
:102950006FF31F30B1F5407F08BF1A43002548F8D8
:102960001C2CD8F844100843C8F84400FFF7BBBC3F
:102970002DE9F04381B0002800F0208142F20009E7
:102980000446C5F20029D9F8000000F00F0081428A
:102990000DD9D9F8000020F00F000843C9F8000055
:1029A000D9F8000000F00F00884240F0078120684D
:1029B00044F218464207C5F602060AD52269336872
:1029C00003F070039A4204D9336823F070031A436A
:1029D000326002070AD56269736803F070039A4295
:1029E00004D9736823F070031A437260C2060AD5D3
:1029F000A269736803F4E0639A4204D9736823F40C
:102A0000E0631A43726082060AD5E269B36803F094
:102A100070039A4204D9B36823F070031A43B2607A
:102A200010F002020AD0E368376807F00F07BB42D4
:102A300004D9376827F00F073B433360C3073FD003
:102A4000306820F47062D4E901031A43326001282F
:102A500056F8182C0AD0032804D002280AD1920371
:102A60000BD4ABE0920108D4A8E000BFD20504D497
:102A7000A4E000BF520740F1A180884656F8081C28
:102A800021F00701084346F8080CFEF7B9FF054698
:102A900041F2883756F8080C616800F03800B0EB56
:102AA000C10F09D0FEF7ACFF401BB842F2D903209A
:102AB00001B0BDE8F08300BF2068414600F002028B
:102AC00052B1E268336803F00F039A4204D23368CC
:102AD00023F00F031A433260D9F8002002F00F02EE
:102AE00091420CD2D9F8002022F00F020A43C9F813
:102AF0000020D9F8002002F00F028A425ED141077F
:102B00000AD52169326802F07002914204D232681B
:102B100022F070021143316001070AD561697268C1
:102B200002F07002914204D2726822F070021143E6
:102B30007160C1060AD5A169726802F4E06291422F
:102B400004D2726822F4E0621143716080060AD5F3
:102B5000E069B16801F07001884204D2B16821F0E7
:102B600070010843B06000F0B7F8316848F696424B
:102B7000C0F60002C1F30321515C336803F00F0378
:102B800001F01F01D25C20FA01F102F01F0040F2B7
:102B90001002C2F2004221FA00F0106040F2080078
:102BA00040F20C02C2F20040C2F200420068116022
:102BB00001B0BDE8F043FEF76FBF00BF012001B0D8
:102BC000BDE8F0830000000080B500F085F844F215
:102BD000184148F69643C5F60201C0F600030A689C
:102BE000C2F303229A5C096801F00F0102F01F0290
:102BF000595C20FA02F201F01F0040F21001C2F20B
:102C0000004122FA00F0086040F20C01C2F20041DB
:102C10000A6080BD0000000080B500F05DF844F25D
:102C2000184C48F69643C5F6020CC0F60003DCF8D3
:102C30000020C2F303229A5CDCF8001001F00F01BF
:102C400002F01F02595CD04040F21002C2F2004272
:102C500001F01F0120FA01F1116040F20C02C2F2F2
:102C600000421060DCF80400C0F30210185C00F0B1
:102C70001F0021FA00F080BD80B500F02DF844F26D
:102C8000184C48F69643C5F6020CC0F60003DCF873
:102C90000020C2F303229A5CDCF8001001F00F015F
:102CA00002F01F02595CD04040F21002C2F2004212
:102CB00001F01F0120FA01F1116040F20C02C2F292
:102CC00000421060DCF80400C0F30220185C00F041
:102CD0001F0021FA00F080BD44F20041C5F6020158
:102CE0000869C0F3C200032816D002280ED00028BD
:102CF00032D10868800649F20000C0F2D03058BFD7
:102D000070470968C1F3C101C840704747F64000E9
:102D1000C0F27D10704700BF8B6A886AD1F82CC062
:102D20004A6BC0F30510E8B1C2F3CC0203F0030311
:102D300000EE102A9FED2A1AB8EE400A20EE010A92
:102D40009FED281ADFE803F0022110210A6892069D
:102D50000ED49FED261A18E040F60010C0F23D0098
:102D6000704700BF002070479FED1F1A0DE000BFA5
:102D70000A6849F20003C0F2D033C2F3C10223FA59
:102D800002F201EE102AB8EE411A0A6B9FED183AD2
:102D90006FF35F2202EE102A5FEACC7203FE000A94
:102DA00003EE100A086BB8EE422AC0F34620B8EED4
:102DB000433A013030EE020AB7EE002A81EE031AE0
:102DC00030EE020A21EE000A01EE100AB8EE411AB6
:102DD00080EE010ABCEEC00A10EE100A704700BF78
:102DE000000000390024744A20BCBE4B0024744CFF
:102DF000000000000000000070B3F0B581B0044690
:102E0000007844F20046C007C5F6020626D12078B5
:102E100080076AD5306910F03801B06A42D01829AD
:102E200008BF5FEA80703DD0E0683168002800F09C
:102E30002D8121F0190108433060FEF7E1FD0546C0
:102E4000306840074AD4FEF7DBFD401B0228F7D963
:102E5000032001B0F0BD00BF01207047306900F0D1
:102E60003801B06A102905D018290BD100F00300F1
:102E7000022807D130688003C9D560680028C6D110
:102E8000AAE000BF61683068002900F03981B1F51F
:102E9000A02F00F02D81B1F5803F40F0478140F434
:102EA000803049E130684007E06802D5002800F032
:102EB0009380316821F0190108433060FEF7A0FDCE
:102EC000054600BF3068400708D4FEF799FD401B57
:102ED00002284FF00300F5D901B0F0BD70682169F8
:102EE00020F0FE4040EA016070602078C0061AD5EC
:102EF000306900F03801B06A082907D0182940F07D
:102F0000858000F00300012840F080803068C00513
:102F100002D5E06980285FD1F068216A20F07C50FA
:102F200040EA0160F060207800073FD420788006F6
:102F300056D42078400700F18180656A9DB33069DE
:102F400000F03800182840F01981012DB16A306B6B
:102F500042D001F00302A36A9A423DD1C1F30511A8
:102F6000E26A914238D10146226B6FF35F21013A48
:102F7000914231D1C0F34622616B01398A422BD193
:102F8000C0F30642A16B01398A4225D1C0F3066025
:102F9000E16B013988421FD1706BA16CC0F3CC008A
:102FA000814240F0A581002001B0F0BD6069002899
:102FB000706F59D040F001007067FEF721FD0546A3
:102FC000706F8007B2D4FEF71BFD401B0228F7D9B3
:102FD000032001B0F0BD00BF012001B0F0BD00BF73
:102FE000A0690028306871D040F480503060FEF74E
:102FF00007FD0546306880049BD4FEF701FD401BA9
:103000000228F7D9032001B0F0BD00BFE069002815
:10301000306800F0A18040F080003060FEF7F0FCE6
:10302000054600BF3068C0053FF576AFFEF7E8FC07
:10303000401B02284FF00300F4D94DE7D6F80004F6
:1030400040F48070C6F80004FEF7DAFC054600BFC5
:10305000D6F80004C0052BD4FEF7D2FC401B642830
:10306000F6D9032001B0F0BD20F001007067FEF733
:10307000C7FC0546706F80077FF558AFFEF7C0FCB0
:10308000401B02284FF00300F4D925E721F001008E
:103090003060FEF7B5FC0546306840077FF525AF88
:1030A000FEF7AEFC401B02284FF00300F4D913E7F3
:1030B000A168306F002900F08B80052900F0808026
:1030C000012940F09D8040F001009FE020F48050F5
:1030D0003060FEF795FC0546306880047FF529AF27
:1030E000FEF78EFC401B02284FF00300F4D9F3E6F4
:1030F00040F480203060306840F480301CE000BF35
:1031000020F480303060306820F480203060FEF79A
:1031100077FC0546306880037FF579AEFEF770FCDA
:10312000401B64284FF00300F4D9D5E620F480302A
:103130003060306820F480203060FEF761FC054686
:10314000306880033FF563AEFEF75AFC401B6428ED
:10315000F6D9032001B0F0BD20F080003060FEF70A
:103160004FFC05463068C0057FF5DDAEFEF748FC34
:10317000401B02284FF00300F4D9ADE6306820F080
:1031800080703060FEF73CFC022D05460CD100BF7C
:10319000306880014CD5FEF733FC401B02284FF00D
:1031A0000300F5D998E600BF306880017FF5FBAEDB
:1031B000FEF726FC401B02284FF00300F4D98BE6F3
:1031C00040F004003067306F40F001001EE000BFA7
:1031D00020F001003067306F20F004003067FEF708
:1031E0000FFC054641F28837306F80077FF5A5AEAA
:1031F000FEF706FC401BB8424FF00300F4D96BE623
:1032000020F001003067306F20F004003067FEF7D7
:10321000F7FB054641F28837306F80073FF58DAEEA
:10322000FEF7EEFB401BB8424FF00300F4D953E623
:1032300004F12807B06A40F2F33188438ECF084387
:10324000591E40EA02104FF47E426FF35F21B062D4
:1032500002EB47204FF4FE0280B2E36B0844A16BFF
:1032600002EB01414FF0FE4201F4FE0102EB03626A
:10327000084402F0FE4108443063F06A4FF6F871EA
:1032800020F00100F062706BA26C884340EAC2003B
:103290007063F06A216C20F00C000843F062F06A61
:1032A000616C20F002000843F062F06A40F4803064
:1032B000F062F06A40F40030F062F06A40F480207E
:1032C000F062F06A40F00100F062306840F0807017
:1032D0003060FEF795FB0446306880013FF563AE31
:1032E000FEF78EFB001B02284FF00300F4D9F3E534
:1032F000F06A20F00100F062FEF782FB0546FEF75F
:103300007FFBA842FBD0706B4FF6F871A26C88432C
:1033100040EAC2007063F06A40F00100F0620020F1
:1033200001B0F0BD0000000090B370B5044690F805
:10333000450015460E4628B9002084F84400204672
:1033400000F02AF8206804F10801FDF71DFB206851
:103350003146A268FDF760FBD4E90102E36A294621
:10336000FDF7EAFAA068216851F8202042F0010236
:1033700041F8202044F20000C5F20020016841F02D
:1033800000410160012084F84500002070BD00BFAD
:1033900001207047000000002DE9F043B5B040F275
:1033A0001C100025C2F20040349533950178309509
:1033B000CDE9315500295AD102AC0121017004F147
:1033C0000800B021FCF7D6FF4FF080700290204635
:1033D0000395FEF78DFD08B1FDF7A6FA44F2D4403F
:1033E00040F60004C5F60200C5F6020430AD4FF009
:1033F000020801684FF0000941F480510160006843
:10340000294600F48050019001984FF6807030906A
:1034100004F50060CDF8C4800326CDF8C8900C27D1
:1034200033963497FEF708FA30A94CF23370CDE9A1
:10343000336781E8010304F580602946FEF7FCF953
:1034400030A90420CDE9336781E8010304F58050F9
:103450002946FEF7F1F930A94FF4C070339681E8A0
:1034600001030920349020462946FEF7E5F935B0DE
:10347000BDE8F08300000000411E0020B0EB116F9A
:1034800002D00120704700BF4EF21002F023CEF2AE
:10349000000251604EF62351CEF200010B7007215D
:1034A000906011607047000090F88410012901D1EC
:1034B000022070472421C0F8881001680A680B6850
:1034C00022F0005223F001030B60002343660A60E0
:1034D0002021C0F8881080F8843000207047000058
:1034E00090F88420012A01D10220704770B524226F
:1034F000C0F888200268D0F864E0BEF1000FD2F86E
:1035000000C0136823F001031360936823F0606325
:1035100041EA0301916019D091684FF2C03E93686F
:10352000C0F6000E5B0F4FF2C835C1F34266C0F61D
:1035300000051EF80340E95C2301B3FBF1F11EF81E
:103540000630AE5D1B01B3FBF6F301E00121012360
:10355000A0F86A102021A0F86830C2F800C0C0F8B6
:103560008810002180F88410002070BD0000000049
:1035700090F88420012A01D10220704770B52422DE
:10358000C0F888200268D0F864E0BEF1000FD2F8DD
:1035900000C0136823F001031360936823F06043B5
:1035A00041EA0301916019D091684FF2C03E9368DF
:1035B000C0F6000E5B0F4FF2C835C1F34266C0F68D
:1035C00000051EF80340E95C2301B3FBF1F11EF88E
:1035D0000630AE5D1B01B3FBF6F301E001210123D0
:1035E000A0F86A102021A0F86830C2F800C0C0F826
:1035F0008810002180F88410002070BD00000000B9
:1036000010B5D8B10446D0F8880028B9002084F855
:103610008400204600F028F82420C4F888002068A0
:10362000A16A0268002922F00101016002D020464F
:1036300002F0DAFC204602F0FFFD08B1012010BDC7
:103640002068416821F490414160816821F02A019D
:103650008160016841F0010101602046BDE8104031
:1036600002F032BD00000000B0B5B6B0044602A8BA
:103670000830B02100253195CDE93455CDE93255DA
:10368000FCF778FE41F200012068C4F20101884293
:1036900002D036B0B0BD00BF0120029002A8039551
:1036A000FEF726FC08B1FDF73FF944F2E040C5F60D
:1036B0000200016941F010010161016901F010018E
:1036C00001910199016841F001010160006831A98F
:1036D00000F00100019001984FF4C0603190022089
:1036E00032900020CDE93300072035900020C5F648
:1036F0000200FEF7A1F836B0B0BD000000000000E7
:103700002DE9F04381B00446D0F88800202807D185
:103710000120002918BF002A06D101B0BDE8F083BE
:10372000022001B0BDE8F0831D460E460020C4F81B
:1037300090002120C4F888001746FEF761F9A4F82C
:1037400054708146A4F85670A168B1F5805F02D12B
:103750002069002866D037460020B4F856100029AA
:10376000216867D06A1C28D0002D53D0804600BF46
:10377000C86900060AD4FEF743F9A0EB0900A84285
:1037800000F2848021680868F2E700BF17B117F8DB
:10379000010B04E038F8020B00276FF35F2088620A
:1037A000B4F856000138A4F85600B4F856000028C2
:1037B000DED13FE0CA69120609D4CA69120606D4EE
:1037C000CA6912065CBFCA695FEA0262F2D51FB11C
:1037D00017F8012B05E000BF30F8022B00276FF32C
:1037E0005F228A62B4F85620013AA4F85620B4F851
:1037F0005620002AE1D11DE030F8022B00276FF39C
:103800005F228A62B4F85620013AA4F85620B4F830
:1038100056207AB1CA69120636D5002FECD017F8B7
:10382000012BEEE700273046B4F856100029216836
:103830007FF498AFC86940061ED42DB3681C14D11C
:10384000C86940062AD4C869400627D4C86940061A
:1038500024D4C86940064FF00000F1D50DE000BF48
:1038600020680168C069400618D4FEF7C9F8A0EBCB
:103870000900A842F4D909E000202021C4F88810EA
:1038800001B0BDE8F08300BFFEF7BAF803202021A5
:10389000C4F8881001B0BDE8F08300BF00202021EB
:1038A000C4F8881001B0BDE8F083000000000000FB
:1038B000FEE7000000000000B0B540F2C001044681
:1038C000C2F2004100200A88498801FB02F500216C
:1038D00001F03AFB02F038F8D5B142F20000042DB5
:1038E000C6F2000005F0030108D325F0030200BF73
:1038F000043A0480048004800480F9D1002908BFC0
:10390000B0BD0129048003D00229048018BF0480BF
:10391000B0BD0000000000002DE9F04F83B0044668
:10392000101A161B0D4618BF4FF0FF3607464FF012
:10393000010B0028A3EB010C48BF47420128A8BF98
:103940005E46591B18BF4FF0FF31BCF1000FCDF898
:1039500008C002D5CCF100000290BCF1010F4FF07D
:103960000008B8BF8B4602984FF0000A87424FF01C
:10397000000988BF3846019001300090A0B2A9B27A
:1039800001F0E2FA01F0E0FF0AEB0700019B029967
:10399000B0EB030A414409F10109D4BF8246344423
:1039A0001FFA89F0B1EB0308D8BF8846C8BF5D4451
:1039B0000099814242F20001C6F200010C98088091
:1039C000DCD203B0BDE8F08F2DE9F04F89B080461E
:1039D000101AB2EB080A8146039242F2000718BFA0
:1039E0004FF0FF3A00288B4648BFC0F10009C6F2ED
:1039F000000700244646002507930128A8BF4FF082
:103A0000010A09F101020592B0B2594601F09CFA8F
:103A100001F09AFF0135059AA8B2002C08BF4C446A
:103A200018BF5644824212983880EDD2079B39461F
:103A3000A3EB0B00B3EB0B07CDF80890129ACDF86F
:103A400010A018BF4FF0FF370028089001D543425F
:103A5000089301284FF00004A8BF012708985E468C
:103A600000250130069000BF8A464046B1B291461B
:103A700001F06AFA01F068FF08980135002C514600
:103A800008BF0444A8B24A4618BF3E44069BAAF8A1
:103A900000908342E8D2019700240025029E059FF2
:103AA0001FFA88F0079901F04FFA01F04DFF013538
:103AB000002C08BF3444A8B2049A18BF904487422F
:103AC000AAF80090ECD200240025DDF80C80089EB6
:103AD000DDF804A0069F00BF1FFA8BF1404601F0FD
:103AE00033FA01F031FF0135002CA8B208BF34448D
:103AF00018BFD344874242F20000C6F20000A0F88B
:103B00000090E9D209B0BDE8F08F0000000000008D
:103B1000994288BF70472DE9F04F81B08146101A55
:103B20000D46411C98460A0432D042F200044FF67A
:103B3000FC720A9FC6F2000401F0030A01EA0206C1
:103B40001FFA80FB04E000BF0135A8B2404529D828
:103B5000A9B2484601F0F8F901F0F6FEBBF1030FF7
:103B600008D300200430278081B22780B14227800B
:103B70002780F7D1BAF1000FE6D0BAF1010F278004
:103B8000E2D0BAF1020F278018BF2780DCE700BF20
:103B9000A9B2484601F0D8F901F0D6FE0135A8B225
:103BA0004045F5D901B0BDE8F04F70470000000076
:103BB00080B54FF47040552101F0BEFE4FF2010078
:103BC000AA2101F0B9FE4FF20200522101F0B4FE29
:103BD0004FF20300082101F0AFFE4FF20400012173
:103BE00001F0AAFE4FF43640342101F0A5FE4BF25D
:103BF0000160342101F0A0FE4BF20260342101F09B
:103C00009BFE4FF430400D2101F096FE4BF2010077
:103C10000D2101F091FE4BF202000D2101F08CFE0E
:103C20004FF43740242101F087FE4BF2017024212C
:103C300001F082FE4BF20270242101F07DFE4FF470
:103C400031400D2101F078FE4BF201100D2101F001
:103C500073FE4BF202100D2101F06EFE4FF438405E
:103C6000242101F069FE4BF60100242101F064FEDD
:103C70004BF60200242101F05FFE4FF43240002198
:103C800001F05AFE4FF43940242101F055FE4BF665
:103C90000110242101F050FE4BF60210242101F006
:103CA0004BFE4FF43340052101F046FE4BF201304C
:103CB000052101F041FE4BF20230052101F03CFEEE
:103CC0004FF43A40342101F037FE4BF60120342105
:103CD00001F032FE4BF60220342101F02DFE4FF4AC
:103CE00035400B2101F028FE4BF201500B2101F071
:103CF00023FE4BF202500B2101F01EFE4FF43C401C
:103D0000002101F019FE4BF60140A32101F014FE41
:103D10004BF60240002101F00FFE4FF43D40002120
:103D200001F00AFE4BF60150A32101F005FE4BF60F
:103D30000250002101F000FE4FF43E40002101F04E
:103D4000FBFD4BF60160372101F0F6FD4FF45140C9
:103D5000002101F0F1FD4DF20110372101F0ECFDE1
:103D60004DF20210002101F0E7FD4DF20310532146
:103D700001F0E2FD4DF20410002101F0DDFD4DF2F5
:103D80000510792101F0D8FD4DF20610002101F057
:103D9000D3FD4DF20710972101F0CEFD4DF2081032
:103DA000002101F0C9FD4DF20910B12101F0C4FD5F
:103DB0004DF20A10002101F0BFFD4DF20B10D5218C
:103DC00001F0BAFD4DF20C10002101F0B5FD4DF2ED
:103DD0000D10F42101F0B0FD4DF20E10012101F0A3
:103DE000ABFD4DF20F10232101F0A6FD4DF2101096
:103DF000012101F0A1FD4DF21110492101F09CFDBE
:103E00004DF21210012101F097FD4DF213108721A0
:103E100001F092FD4DF21410012101F08DFD4DF2E3
:103E20001510B62101F088FD4DF21610022101F0A7
:103E300083FD4DF21710002101F07EFD4DF21810A8
:103E4000022101F079FD4DF219103B2101F074FDC2
:103E50004DF21A10022101F06FFD4DF21B103D21B1
:103E600001F06AFD4DF21C10022101F065FD4DF2DA
:103E70001D10752101F060FD4DF21E10022101F0B0
:103E80005BFD4DF21F10B12101F056FD4DF22010E7
:103E9000022101F051FD4DF22110D52101F04CFD20
:103EA0004DF22210032101F047FD4DF223100921AC
:103EB00001F042FD4DF22410032101F03DFD4DF2D1
:103EC0002510282101F038FD4DF22610032101F0C4
:103ED00033FD4DF22710522101F02EFD4DF2281036
:103EE000032101F029FD4DF229106B2101F024FD81
:103EF0004DF22A10032101F01FFD4DF22B108D21F0
:103F000001F01AFD4DF22C10032101F015FD4DF2C8
:103F10002D10A22101F010FD4DF22E10032101F011
:103F20000BFD4DF22F10BB2101F006FD4DF23010BC
:103F3000032101F001FD4DF23110C12101F0FCFC23
:103F40004DF23210032101F0F7FC4DF23310C12184
:103F500001F0F2FC4FF45240002101F0EDFC4DF273
:103F60000120372101F0E8FC4DF20220002101F090
:103F7000E3FC4DF20320532101F0DEFC4DF204205E
:103F8000002101F0D9FC4DF20520792101F0D4FC8B
:103F90004DF20620002101F0CFFC4DF207209721C1
:103FA00001F0CAFC4DF20820002101F0C5FC4DF2E1
:103FB0000920B12101F0C0FC4DF20A20002101F0DE
:103FC000BBFC4DF20B20D52101F0B6FC4DF20C20CC
:103FD000002101F0B1FC4DF20D20F42101F0ACFC08
:103FE0004DF20E20012101F0A7FC4DF20F202321FC
:103FF00001F0A2FC4DF21020012101F09DFC4DF2D8
:104000001120492101F098FC4DF21220012101F00C
:1040100093FC4DF21320872101F08EFC4DF2142009
:10402000012101F089FC4DF21520B62101F084FC3C
:104030004DF21620022101F07FFC4DF217200021E5
:1040400001F07AFC4DF21820022101F075FC4DF2CE
:1040500019203B2101F070FC4DF21A20022101F0E1
:104060006BFC4DF21B203D2101F066FC4DF21C2043
:10407000022101F061FC4DF21D20752101F05CFC74
:104080004DF21E20022101F057FC4DF21F20B121FC
:1040900001F052FC4DF22020022101F04DFC4DF2C6
:1040A0002120D52101F048FC4DF22220032101F00E
:1040B00043FC4DF22320092101F03EFC4DF2242067
:1040C000032101F039FC4DF22520282101F034FCB8
:1040D0004DF22620032101F02FFC4DF22720522122
:1040E00001F02AFC4DF22820032101F025FC4DF2BD
:1040F00029206B2101F020FC4DF22A20032101F040
:104100001BFC4DF22B208D2101F016FC4DF22C20D2
:10411000032101F011FC4DF22D20A22101F00CFC35
:104120004DF22E20032101F007FC4DF22F20BB2180
:1041300001F002FC4DF23020032101F0FDFB4DF2B5
:104140003120C12101F0F8FB4DF23220032101F0B2
:10415000F3FB4DF23320C12101F0EEFB4FF453404D
:10416000002101F0E9FB4DF20130372101F0E4FBC1
:104170004DF20230002101F0DFFB4DF203305321FC
:1041800001F0DAFB4DF20430002101F0D5FB4DF2D5
:104190000530792101F0D0FB4DF20630002101F00D
:1041A000CBFB4DF20730972101F0C6FB4DF20830F2
:1041B000002101F0C1FB4DF20930B12101F0BCFB3F
:1041C0004DF20A30002101F0B7FB4DF20B30D52142
:1041D00001F0B2FB4DF20C30002101F0ADFB4DF2CD
:1041E0000D30F42101F0A8FB4DF20E30012101F059
:1041F000A3FB4DF20F30232101F09EFB4DF2103056
:10420000012101F099FB4DF21130492101F094FB9D
:104210004DF21230012101F08FFB4DF21330872156
:1042200001F08AFB4DF21430012101F085FB4DF2C3
:104230001530B62101F080FB4DF21630022101F05D
:104240007BFB4DF21730002101F076FB4DF2183068
:10425000022101F071FB4DF219303B2101F06CFBA2
:104260004DF21A30022101F067FB4DF21B303D2167
:1042700001F062FB4DF21C30022101F05DFB4DF2BA
:104280001D30752101F058FB4DF21E30022101F066
:1042900053FB4DF21F30B12101F04EFB4DF22030A7
:1042A000022101F049FB4DF22130D52101F044FB00
:1042B0004DF22230032101F03FFB4DF22330092162
:1042C00001F03AFB4DF22430032101F035FB4DF2B1
:1042D0002530282101F030FB4DF22630032101F07A
:1042E0002BFB4DF22730522101F026FB4DF22830F6
:1042F000032101F021FB4DF229306B2101F01CFB61
:104300004DF22A30032101F017FB4DF22B308D21A5
:1043100001F012FB4DF22C30032101F00DFB4DF2A8
:104320002D30A22101F008FB4DF22E30032101F0C7
:1043300003FB4DF22F30BB2101F0FEFA4DF230307D
:10434000032101F0F9FA4DF23130C12101F0F4FA04
:104350004DF23230032101F0EFFA4DF23330C1213A
:1043600001F0EAFA4FF45440002101F0E5FA4DF271
:104370000140372101F0E0FA4DF20240002101F046
:10438000DBFA4DF20340532101F0D6FA4DF204401E
:10439000002101F0D1FA4DF20540792101F0CCFA6B
:1043A0004DF20640002101F0C7FA4DF20740972177
:1043B00001F0C2FA4DF20840002101F0BDFA4DF2C1
:1043C0000940B12101F0B8FA4DF20A40002101F094
:1043D000B3FA4DF20B40D52101F0AEFA4DF20C408C
:1043E000002101F0A9FA4DF20D40F42101F0A4FAE8
:1043F0004DF20E40012101F09FFA4DF20F402321B2
:1044000001F09AFA4DF21040012101F095FA4DF2B7
:104410001140492101F090FA4DF21240012101F0C2
:104420008BFA4DF21340872101F086FA4DF21440C9
:10443000012101F081FA4DF21540B62101F07CFA1C
:104440004DF21640022101F077FA4DF2174000219B
:1044500001F072FA4DF21840022101F06DFA4DF2AE
:1044600019403B2101F068FA4DF21A40022101F097
:1044700063FA4DF21B403D2101F05EFA4DF21C4003
:10448000022101F059FA4DF21D40752101F054FA54
:104490004DF21E40022101F04FFA4DF21F40B121B2
:1044A00001F04AFA4DF22040022101F045FA4DF2A6
:1044B0002140D52101F040FA4DF22240032101F0C4
:1044C0003BFA4DF22340092101F036FA4DF2244027
:1044D000032101F031FA4DF22540282101F02CFA98
:1044E0004DF22640032101F027FA4DF227405221D8
:1044F00001F022FA4DF22840032101F01DFA4DF29D
:1045000029406B2101F018FA4DF22A40032101F0F5
:1045100013FA4DF22B408D2101F00EFA4DF22C4092
:10452000032101F009FA4DF22D40A22101F004FA15
:104530004DF22E40032101F0FFF94DF22F40BB2137
:1045400001F0FAF94DF23040032101F0F5F94DF296
:104550003140C12101F0F0F94DF23240032101F068
:10456000EBF94DF23340C12101F0E6F94FF455402B
:10457000002101F0E1F94DF20150372101F0DCF9A1
:104580004DF20250002101F0D7F94DF203505321B2
:1045900001F0D2F94DF20450002101F0CDF94DF2B5
:1045A0000550792101F0C8F94DF20650002101F0C3
:1045B000C3F94DF20750972101F0BEF94DF20850B2
:1045C000002101F0B9F94DF20950B12101F0B4F91F
:1045D0004DF20A50002101F0AFF94DF20B50D521F8
:1045E00001F0AAF94DF20C50002101F0A5F94DF2AD
:1045F0000D50F42101F0A0F94DF20E50012101F00F
:104600009BF94DF20F50232101F096F94DF2105015
:10461000012101F091F94DF21150492101F08CF97D
:104620004DF21250012101F087F94DF2135087210C
:1046300001F082F94DF21450012101F07DF94DF2A3
:104640001550B62101F078F94DF21650022101F013
:1046500073F94DF21750002101F06EF94DF2185028
:10466000022101F069F94DF219503B2101F064F982
:104670004DF21A50022101F05FF94DF21B503D211D
:1046800001F05AF94DF21C50022101F055F94DF29A
:104690001D50752101F050F94DF21E50022101F01C
:1046A0004BF94DF21F50B12101F046F94DF2205067
:1046B000022101F041F94DF22150D52101F03CF9E0
:1046C0004DF22250032101F037F94DF22350092118
:1046D00001F032F94DF22450032101F02DF94DF291
:1046E0002550282101F028F94DF22650032101F030
:1046F00023F94DF22750522101F01EF94DF22850B6
:10470000032101F019F94DF229506B2101F014F940
:104710004DF22A50032101F00FF94DF22B508D215B
:1047200001F00AF94DF22C50032101F005F94DF288
:104730002D50A22101F000F94DF22E50032101F07D
:10474000FBF84DF22F50BB2101F0F6F84DF230503E
:10475000032101F0F1F84DF23150C12101F0ECF8E4
:104760004DF23250032101F0E7F84DF23350C121F0
:1047700001F0E2F84FF45640002101F0DDF84DF26F
:104780000160372101F0D8F84DF20260002101F0FC
:10479000D3F84DF20360532101F0CEF84DF20460DE
:1047A000002101F0C9F84DF20560792101F0C4F84B
:1047B0004DF20660002101F0BFF84DF2076097212D
:1047C00001F0BAF84DF20860002101F0B5F84DF2A1
:1047D0000960B12101F0B0F84DF20A60002101F04A
:1047E000ABF84DF20B60D52101F0A6F84DF20C604C
:1047F000002101F0A1F84DF20D60F42101F09CF8C8
:104800004DF20E60012101F097F84DF20F60232167
:1048100001F092F84DF21060012101F08DF84DF297
:104820001160492101F088F84DF21260012101F078
:1048300083F84DF21360872101F07EF84DF2146089
:10484000012101F079F84DF21560B62101F074F8FC
:104850004DF21660022101F06FF84DF21760002151
:1048600001F06AF84DF21860022101F065F84DF28E
:1048700019603B2101F060F84DF21A60022101F04D
:104880005BF84DF21B603D2101F056F84DF21C60C3
:10489000022101F051F84DF21D60752101F04CF834
:1048A0004DF21E60022101F047F84DF21F60B12168
:1048B00001F042F84DF22060022101F03DF84DF286
:1048C0002160D52101F038F84DF22260032101F07A
:1048D00033F84DF22360092101F02EF84DF22460E7
:1048E000032101F029F84DF22560282101F024F878
:1048F0004DF22660032101F01FF84DF2276052218E
:1049000001F01AF84DF22860032101F015F84DF27C
:1049100029606B2101F010F84DF22A60032101F0AB
:104920000BF84DF22B608D2101F006F84DF22C6052
:10493000032101F001F84DF22D60A22100F0FCFFEF
:104940004DF22E60032100F0F7FF4DF22F60BB21E6
:1049500000F0F2FF4DF23060032100F0EDFF4DF268
:104960003160C12100F0E8FF4DF23260032100F018
:10497000E3FF4DF23360C12100F0DEFF4FF47040E1
:10498000552100F0D9FF4FF20100AA2100F0D4FF19
:104990004FF20200522100F0CFFF4FF20300082136
:1049A00000F0CAFF4FF20400002100F0C5FF4FF4F1
:1049B0003040002100F0C0FF4BF20100052100F063
:1049C000BBFF4BF20200022100F0B6FF4BF20300E6
:1049D000052100F0B1FF4BF20400022100F0ACFF12
:1049E0004FF43640082100F0A7FF4FF43540502126
:1049F00000F0A2FF4FF43640052100F09DFF4FF478
:104A00003740002100F098FF4BF20170002100F0C8
:104A100093FF4FF43840012100F08EFF4BF6010068
:104A2000052100F089FF4BF60200052100F084FF0C
:104A30004BF60300052100F07FFF4FF43C400221BC
:104A400000F07AFF4BF60140002100F075FF4BF6B5
:104A50000240002100F070FF4FF44C40032100F0B1
:104A60006BFF4CF60140002100F066FF4CF602405F
:104A7000002100F061FF4FF43D40012100F05CFF98
:104A80004BF60150842100F057FF4BF602500721EE
:104A900000F052FF4BF60350312100F04DFF4BF672
:104AA0000450002100F048FF4FF43A40012100F08B
:104AB00043FF4FF47F40AA2100F03EFF4FF6017004
:104AC000552100F039FF4FF60270252100F034FF28
:104AD0004FF60370012100F02FFF4FF45850402192
:104AE00000F02AFF4FF45450002100F025FF4FF44E
:104AF0006850052100F020FF4FF4885000F00CFFB3
:104B00007820FCF785FE4FF4245000F005FF0A20C2
:104B1000FCF77EFE4FF43050BDE8804000F0FCBE54
:104B200010B588B0D320ADF80400BDF8040040F201
:104B3000C004ADF8040042F20000C6F20000BDF867
:104B40000410C2F2004449F2413C20F8021C0188E2
:104B5000ADF80410BDF804100188ADF80410BDF8DC
:104B600004100188ADF80410BDF804100288ADF8F7
:104B70000420BDF8043043EA0121A1808BB249F240
:104B80004131634500F0BC800421ADF80410BDF84C
:104B90000410ADF80410BDF8041020F8021C0188C0
:104BA000ADF80410BDF804100188ADF80410BDF88C
:104BB00004100188ADF80410BDF804100388ADF8A6
:104BC0000430BDF8043043EA012347F289719AB2F8
:104BD000A3808A4200F09480D421ADF80410BDF87F
:104BE0000410ADF80410BDF8041020F8021C018870
:104BF000ADF80410BDF804100188ADF80410BDF83C
:104C000004100188ADF80410BDF804100288ADF856
:104C10000420BDF8042042EA012245F2103193B28B
:104C2000A2808B426CD0D321ADF80410BDF80410E3
:104C3000ADF80410BDF8041020F8021C0188ADF88E
:104C40000410BDF804100188ADF80410BDF804107C
:104C50000188ADF80410BDF804100288ADF80420F6
:104C6000BDF8042042EA012247F2967193B2A28075
:104C70008B4245D04FF4704120F8021C5521018031
:104C80004FF20101AA22CFF6FF7120F8021C028028
:104C90004A1C20F8022C522202808A1C20F8022C86
:104CA00008220280033120F8021C012101804FF408
:104CB0004541ADF804100CF54752BDF80410ADF8AD
:104CC0000410BDF8041020F8021C0188ADF804108F
:104CD000BDF80410ADF80420BDF80420ADF80420A0
:104CE000BDF8042020F8022C0088ADF80400BDF8BF
:104CF000040040EA0120A0800520FCF789FDA1887E
:104D000012A003F029FBFEF753FF02210191D4E921
:104D100005020391E36B01A9FBF70EFE0120A071D0
:104D200042F60040C2F60020A0604FF42C50A08153
:104D300040F22030C0F2E0102060022000F00CF8B9
:104D40004FF6FF70FEF7B8FD08B010BD4C4344208D
:104D500049443A25780D0A0040F2C00CC2F2004CDA
:104D60009CF80610BCF80420012903D141F6631316
:104D70009A4204D141B941F663118A4204D108280C
:104D80000ED26DA108E000BF0138C0B2072807D2DB
:104D900048F67C41C0F6000101EB4000018800E0CC
:104DA000002180B581B041F6FE7041F66313C6F272
:104DB00000009A424FF4585EA0F800E0418003D111
:104DC000BCF8003011E000BFBCF800208906BCF838
:104DD000023007D49A4207D9ACF80030ACF8022070
:104DE00003E000BF9A42F7D31346BCF80A104FF015
:104DF000000EADF80210BDF80220ADF80220BDF89B
:104E000002200280ADF802E0BDF80220ADF80220D9
:104E1000BDF8022042804A1CADF80220BDF80220F5
:104E2000ADF80220BDF802200280ADF802E0BDF826
:104E30000220ADF80220BDF8022042808A1CADF8A5
:104E400002200331BDF80220ADF80220BDF8022097
:104E500002805A1E130AADF80230BDF80230ADF8D8
:104E60000230BDF802304380ADF80210BDF80210E8
:104E7000ADF80210BDF802100180D1B2ADF80210F9
:104E8000BDF80210ADF80210BDF802104180BCF868
:104E90000C10ADF80210BDF80220ADF80220BDF8EC
:104EA00002200280ADF802E0BDF80220ADF8022039
:104EB000BDF8022042804A1CADF80220BDF8022055
:104EC000ADF80220BDF802200280ADF802E0BDF886
:104ED0000220ADF80220BDF8022042808A1CADF805
:104EE00002200331BDF80220ADF80220BDF80220F7
:104EF0000280BCF80220013A130AADF80230BDF876
:104F00000230ADF80230BDF802304380ADF8021037
:104F1000BDF80210ADF80210BDF802100180D1B248
:104F2000ADF80210BDF80210ADF80210BDF8021085
:104F3000418001B080BD00BFA000E0002000600003
:104F400080000000C000400080B581B040F2C00C7D
:104F500041F6FE7EC2F2004CC6F2000EBCF80A30EA
:104F6000ADF80230BDF80220ADF80220BDF80220F5
:104F7000AEF80020020AC0B2ADF80220BDF802204F
:104F8000ADF80220BDF80220AEF802205A1CADF8A0
:104F90000220BDF80220ADF80220BDF80220AEF8D4
:104FA0000020ADF80200BDF80200ADF80200BDF827
:104FB0000200AEF80200BCF80C00ADF80200BDF82B
:104FC00002200130ADF80220BDF80220AEF800202A
:104FD0000A0AADF80220BDF80220ADF80220BDF8A3
:104FE0000220AEF80220ADF80200BDF80200ADF8D4
:104FF0000200BDF80200AEF80000C8B2ADF8020031
:10500000BDF80200ADF80200BDF80200AEF80200E3
:1050100001B080BD000000002DE9F04F81B01C46BA
:10502000DB086707A4F10C074FF001064FEAB7074A
:1050300018BF06EBD403052F009100F22C848246A2
:10504000A2F12000DFE817F006002000270410007E
:1050500027042C00C1B2490051FA80F04CF24041C3
:10506000C0F6000108E000BFC1B2C90051FA80F0EB
:105070004CF6A461C0F6000101EB800B60085843B8
:10508000010619D100F007BCC0B24CF6B401C0F65D
:10509000000101EB001B6008584301060CD1FAE344
:1050A000C0B24DF60041C0F6000101EB801B600864
:1050B0005843010600F0EF83C5B20A99002900F0B9
:1050C000B9814FF00008002703E000BF013D00F068
:1050D000E283B8B21BF8016BA042F7D271B2B1F112
:1050E000FF3F10DCC04300992044084481B21FFAFE
:1050F0008AF0FFF729FF00F027FC42F200010B982D
:10510000C6F20001088040F2C0000AF1010399B222
:10511000C2F200407A1CB0F800C090B261454FF076
:10512000010138BF0621A04218BF4146071B18BF26
:105130001746A04208BF9A460629C7D0002940F06A
:10514000AA83B9B2A142C1D2700616D5C84300994C
:105150002044084481B21FFA8AF0FFF7F5FE00F000
:10516000F3FB42F200010B98C6F20001088040F206
:10517000C000C2F20040B0F800C00AF10102781C81
:1051800091B283B261454FF0010138BF0621A342BD
:1051900018BF41461F1B18BF0746A34208BF9246CF
:1051A000062993D0002940F07683B9B2A1428DD26E
:1051B000B00616D5C84300992044084481B21FFAAE
:1051C0008AF0FFF7C1FE00F0BFFB42F200010B982E
:1051D000C6F20001088040F2C000C2F20040B0F800
:1051E00000C00AF10102781C91B283B261454FF010
:1051F000010138BF0621A34218BF41461F1B18BF3B
:105200000746A34208BF924606293FF45FAF002934
:1052100040F04183B9B2A142BFF458AFF00616D5B1
:10522000C84300992044084481B21FFA8AF0FFF76E
:105230008BFE00F089FB42F200010B98C6F20001E0
:10524000088040F2C000C2F20040B0F800C00AF18D
:105250000102781C91B283B261454FF0010138BF61
:105260000621A34218BF41461F1B18BF0746A34291
:1052700008BF924606293FF429AF002940F00B836E
:10528000B9B2A142BFF422AF300716D5C843009986
:105290002044084481B21FFA8AF0FFF755FE00F05F
:1052A00053FB42F200010B98C6F20001088040F265
:1052B000C000C2F20040B0F800C00AF10102781C40
:1052C00091B283B261454FF0010138BF0621A3427C
:1052D00018BF41461F1B18BF0746A34208BF92468E
:1052E00006293FF4F3AE002940F0D582B9B2A142BD
:1052F000BFF4ECAE700716D5C843009920440844AB
:1053000081B21FFA8AF0FFF71FFE00F01DFB42F288
:1053100000010B98C6F20001088040F2C000C2F202
:105320000040B0F800C00AF10102781C91B283B2CB
:1053300061454FF0010138BF0621A34218BF414625
:105340001F1B18BF0746A34208BF924606293FF419
:10535000BDAE002940F09F82B9B2A142BFF4B6AE03
:10536000B00716D5C84300992044084481B21FFAFB
:105370008AF0FFF7E9FD00F0E7FA42F200010B982E
:10538000C6F20001088040F2C000C2F20040B0F84E
:1053900000C00AF10102781C91B283B261454FF05E
:1053A000010138BF0621A34218BF41461F1B18BF89
:1053B0000746A34208BF924606293FF487AE00295C
:1053C00040F06982B9B2A142BFF480AEF00716D0B6
:1053D000C84300992044084481B21FFA8AF0FFF7BD
:1053E000B3FD00F0B1FA42F200010B98C6F20001E1
:1053F000088040F2C000C2F20040B0F800C00AF1DC
:105400000102791C90B28BB260454FF0010038BFA9
:105410000620A34218BF40461F1B18BF0F46A342D9
:1054200008BF924606283FF451AE00283FF44EAE26
:1054300031E200BF00274FF0000902E0013D00F01B
:105440002A821FFA89F01BF8018BA042F6D2C043D2
:10545000009A4FFA88F120440244B1F1FF3F1FFA4D
:105460008AF091B20ADD40F21402C2F200421668DC
:10547000FFF76AFD00F068FA05E000BFFFF764FD82
:1054800000F062FA0B9E42F200000AF1010293B2B0
:10549000C6F2000009F10101068040F2C000C2F22C
:1054A0000040008883424FF001008BB238BF0620D5
:1054B000A34218BF3846B3EB040918BF8946A3427C
:1054C00008BF92460628B9D0002840F0E4811FFAB0
:1054D00089F0A042B2D2C0430099204401445FEA5F
:1054E00048601FFA8AF089B20AD440F21402C2F26C
:1054F00000421668FFF728FD00F026FA05E000BF1D
:10550000FFF722FD00F020FA0B9E42F200000AF1A4
:10551000010293B2C6F2000009F10101068040F2D7
:10552000C000C2F20040008883424FF001008BB2FD
:1055300038BF0620A34218BF3846B3EB040918BF92
:105540008946A34208BF924606283FF477AF002859
:1055500040F0A1811FFA89F0A042BFF46FAFC043B1
:105560005FEA88612044009901440DD489B240F279
:105570001400C2F2004006681FFA8AF0FFF7E4FC4C
:1055800000F0E2F908E000BF1FFA8AF089B2FFF7E5
:10559000DBFC00F0D9F90B9E42F200000AF1010297
:1055A00093B2C6F2000009F10101068040F2C0008A
:1055B000C2F20040008883424FF001008BB238BF36
:1055C0000620A34218BF3846B3EB040918BF89462A
:1055D000A34208BF924606283FF430AF002840F0AF
:1055E0005A811FFA89F0A042BFF428AFC043009946
:1055F000204401445FEAC8601FFA8AF089B209D4E6
:1056000040F21402C2F200421668FFF79DFC00F05F
:105610009BF904E0FFF798FC00F096F90B9E42F22C
:1056200000000AF1010293B2C6F2000009F1010183
:10563000068040F2C000C2F20040008883424FF072
:1056400001008BB238BF0620A34218BF3846B3EB27
:10565000040918BF8946A34208BF924606283FF4B2
:10566000EDAE002840F017811FFA89F0A042BFF488
:10567000E5AEC0430099204401445FEA08701FFA78
:105680008AF089B20AD440F21402C2F200421668CB
:10569000FFF75AFC00F058F905E000BFFFF754FC93
:1056A00000F052F90B9E42F200000AF1010293B29F
:1056B000C6F2000009F10101068040F2C000C2F20A
:1056C0000040008883424FF001008BB238BF0620B3
:1056D000A34218BF3846B3EB040918BF8946A3425A
:1056E00008BF924606283FF4A9AE002840F0D380B8
:1056F0001FFA89F0A042BFF4A1AEC0435FEA48712F
:105700002044009901440DD489B240F21400C2F241
:10571000004006681FFA8AF0FFF716FC00F014F943
:1057200008E000BF1FFA8AF089B2FFF70DFC00F015
:105730000BF90B9E42F200000AF1010293B2C6F28D
:10574000000009F10101068040F2C000C2F20040F1
:10575000008883424FF001008BB238BF0620A3427D
:1057600018BF3846B3EB040918BF8946A34208BFE7
:10577000924606283FF462AE002840F08C801FFA63
:1057800089F0A042BFF45AAEC0435FEA887120445A
:10579000009901440CD489B240F21400C2F20040D6
:1057A00006681FFA8AF0FFF7CFFB00F0CDF807E09C
:1057B0001FFA8AF089B2FFF7C7FB00F0C5F80B9E0D
:1057C00042F200000AF1010293B2C6F2000009F1B0
:1057D0000101068040F2C000C2F20040008883420E
:1057E0004FF001008BB238BF0620A34218BF3846E5
:1057F000B3EB040918BF8946A34208BF92460628A6
:105800003FF41CAE002846D11FFA89F0A042BFF435
:1058100015AEC0435FEAC8712044009901440DD120
:1058200089B240F21400C2F2004006681FFA8AF002
:10583000FFF78AFB00F088F808E000BF1FFA8AF043
:1058400089B2FFF781FB00F07FF80B9E42F2000067
:105850000AF1010293B2C6F2000009F101010680CB
:1058600040F2C000C2F20040008883424FF00100C5
:105870008BB238BF0620A34218BF3846B3EB0409E9
:1058800018BF8946A34208BF924606283FF4D6AD0A
:1058900000283FF4D3AD01B0BDE8F08F0000000058
:1058A0002DE9F04F83B00D9E3778A7F12005EDB2BA
:1058B0005E2D2CD80C468146104419440C9D0136AF
:1058C0001FFA80FACB461FFA81F86A08029200BFDD
:1058D0001FFA8BF0504528BF2C44A1B2414516D287
:1058E000FAB2504528BF5FFA89FB0E9B00271FFACA
:1058F0008BF0CDE900732B46FFF78EFB16F8017B8A
:10590000A7F12000C0B25F2802988344E0D303B01F
:10591000BDE8F08F0000000081B0ADF8020041F654
:10592000FE71BDF80200C6F20001ADF80200BDF83C
:105930000200088001B0704741F6FE72C6F2000214
:10594000108051807047000040F2C00041F6FE71A7
:10595000C2F20040C6F200010089088070470000D2
:105960002DE9F04F9DB041F6BC2044F20008C2F290
:105970000040C5F2002800244FF48051C0E909140A
:105980004FF480410F27C0E90B1403211691082121
:105990000FAACDE9181716A9C0F8008008F582767D
:1059A0004660C0E9024404611025C0E90554C0E91D
:1059B0000744C0E90D444FF4001A1797C0E90FA43B
:1059C0001A954FF01109CDE91B94CDE90F474FF01F
:1059D000020B1594CDE911B7CDE91359FDF7A4FCDD
:1059E00008B1FAF7A1FF41F608304FF48051C2F236
:1059F000004001AACDE90877C0E909144FF48041BD
:105A00000462C0E90B14FF210E94CDE90A173C2172
:105A10000794CDE9031708A9C0E90086C0E902B4DC
:105A2000C0E90445C0E90644C0E90D44C0E90FA43B
:105A3000CDE90C59CDE90177CDE90559FDF774FCA5
:105A400008B1FAF771FF1DB0BDE8F08F000000004B
:105A50002DE9F04F87B044F2E0404FF00008C5F662
:105A60000200CDF81880CDE90488CDE902880168EC
:105A700040F2004541F0800101600168C5F6020571
:105A800001F0800101910199016841F0100101606C
:105A90000168012201F0100101910199016841F0B2
:105AA000020101600168012701F0020101910199E1
:105AB000016841F008010160016801F008010191ED
:105AC0000199016841F040010160016801F0400165
:105AD00001910199016841F004010160016801F040
